{
  "_format": "hh-sol-artifact-1",
  "contractName": "MyEpicNFT",
  "sourceName": "contracts/MyEpicNFT.sol",
  "abi": [
    {
      "inputs": [],
      "stateMutability": "nonpayable",
      "type": "constructor"
    },
    {
      "anonymous": false,
      "inputs": [
        {
          "indexed": true,
          "internalType": "address",
          "name": "owner",
          "type": "address"
        },
        {
          "indexed": true,
          "internalType": "address",
          "name": "approved",
          "type": "address"
        },
        {
          "indexed": true,
          "internalType": "uint256",
          "name": "tokenId",
          "type": "uint256"
        }
      ],
      "name": "Approval",
      "type": "event"
    },
    {
      "anonymous": false,
      "inputs": [
        {
          "indexed": true,
          "internalType": "address",
          "name": "owner",
          "type": "address"
        },
        {
          "indexed": true,
          "internalType": "address",
          "name": "operator",
          "type": "address"
        },
        {
          "indexed": false,
          "internalType": "bool",
          "name": "approved",
          "type": "bool"
        }
      ],
      "name": "ApprovalForAll",
      "type": "event"
    },
    {
      "anonymous": false,
      "inputs": [
        {
          "indexed": false,
          "internalType": "address",
          "name": "sender",
          "type": "address"
        },
        {
          "indexed": false,
          "internalType": "uint256",
          "name": "tokenId",
          "type": "uint256"
        }
      ],
      "name": "NewEpicNFTMinted",
      "type": "event"
    },
    {
      "anonymous": false,
      "inputs": [
        {
          "indexed": true,
          "internalType": "address",
          "name": "from",
          "type": "address"
        },
        {
          "indexed": true,
          "internalType": "address",
          "name": "to",
          "type": "address"
        },
        {
          "indexed": true,
          "internalType": "uint256",
          "name": "tokenId",
          "type": "uint256"
        }
      ],
      "name": "Transfer",
      "type": "event"
    },
    {
      "inputs": [
        {
          "internalType": "address",
          "name": "to",
          "type": "address"
        },
        {
          "internalType": "uint256",
          "name": "tokenId",
          "type": "uint256"
        }
      ],
      "name": "approve",
      "outputs": [],
      "stateMutability": "nonpayable",
      "type": "function"
    },
    {
      "inputs": [
        {
          "internalType": "address",
          "name": "owner",
          "type": "address"
        }
      ],
      "name": "balanceOf",
      "outputs": [
        {
          "internalType": "uint256",
          "name": "",
          "type": "uint256"
        }
      ],
      "stateMutability": "view",
      "type": "function"
    },
    {
      "inputs": [
        {
          "internalType": "uint256",
          "name": "tokenId",
          "type": "uint256"
        }
      ],
      "name": "getApproved",
      "outputs": [
        {
          "internalType": "address",
          "name": "",
          "type": "address"
        }
      ],
      "stateMutability": "view",
      "type": "function"
    },
    {
      "inputs": [],
      "name": "getMaxNFTs",
      "outputs": [
        {
          "internalType": "uint8",
          "name": "",
          "type": "uint8"
        }
      ],
      "stateMutability": "view",
      "type": "function"
    },
    {
      "inputs": [],
      "name": "getTotalNFTsMintedSoFar",
      "outputs": [
        {
          "internalType": "uint256",
          "name": "",
          "type": "uint256"
        }
      ],
      "stateMutability": "view",
      "type": "function"
    },
    {
      "inputs": [
        {
          "internalType": "address",
          "name": "owner",
          "type": "address"
        },
        {
          "internalType": "address",
          "name": "operator",
          "type": "address"
        }
      ],
      "name": "isApprovedForAll",
      "outputs": [
        {
          "internalType": "bool",
          "name": "",
          "type": "bool"
        }
      ],
      "stateMutability": "view",
      "type": "function"
    },
    {
      "inputs": [],
      "name": "makeAnEpicNFT",
      "outputs": [],
      "stateMutability": "nonpayable",
      "type": "function"
    },
    {
      "inputs": [],
      "name": "name",
      "outputs": [
        {
          "internalType": "string",
          "name": "",
          "type": "string"
        }
      ],
      "stateMutability": "view",
      "type": "function"
    },
    {
      "inputs": [
        {
          "internalType": "uint256",
          "name": "tokenId",
          "type": "uint256"
        }
      ],
      "name": "ownerOf",
      "outputs": [
        {
          "internalType": "address",
          "name": "",
          "type": "address"
        }
      ],
      "stateMutability": "view",
      "type": "function"
    },
    {
      "inputs": [
        {
          "internalType": "uint256",
          "name": "tokenId",
          "type": "uint256"
        }
      ],
      "name": "pickRandomColor",
      "outputs": [
        {
          "internalType": "string",
          "name": "",
          "type": "string"
        }
      ],
      "stateMutability": "view",
      "type": "function"
    },
    {
      "inputs": [
        {
          "internalType": "uint256",
          "name": "tokenId",
          "type": "uint256"
        }
      ],
      "name": "pickRandomFirstWord",
      "outputs": [
        {
          "internalType": "string",
          "name": "",
          "type": "string"
        }
      ],
      "stateMutability": "view",
      "type": "function"
    },
    {
      "inputs": [
        {
          "internalType": "uint256",
          "name": "tokenId",
          "type": "uint256"
        }
      ],
      "name": "pickRandomSecondWord",
      "outputs": [
        {
          "internalType": "string",
          "name": "",
          "type": "string"
        }
      ],
      "stateMutability": "view",
      "type": "function"
    },
    {
      "inputs": [
        {
          "internalType": "uint256",
          "name": "tokenId",
          "type": "uint256"
        }
      ],
      "name": "pickRandomThirdWord",
      "outputs": [
        {
          "internalType": "string",
          "name": "",
          "type": "string"
        }
      ],
      "stateMutability": "view",
      "type": "function"
    },
    {
      "inputs": [
        {
          "internalType": "address",
          "name": "from",
          "type": "address"
        },
        {
          "internalType": "address",
          "name": "to",
          "type": "address"
        },
        {
          "internalType": "uint256",
          "name": "tokenId",
          "type": "uint256"
        }
      ],
      "name": "safeTransferFrom",
      "outputs": [],
      "stateMutability": "nonpayable",
      "type": "function"
    },
    {
      "inputs": [
        {
          "internalType": "address",
          "name": "from",
          "type": "address"
        },
        {
          "internalType": "address",
          "name": "to",
          "type": "address"
        },
        {
          "internalType": "uint256",
          "name": "tokenId",
          "type": "uint256"
        },
        {
          "internalType": "bytes",
          "name": "_data",
          "type": "bytes"
        }
      ],
      "name": "safeTransferFrom",
      "outputs": [],
      "stateMutability": "nonpayable",
      "type": "function"
    },
    {
      "inputs": [
        {
          "internalType": "address",
          "name": "operator",
          "type": "address"
        },
        {
          "internalType": "bool",
          "name": "approved",
          "type": "bool"
        }
      ],
      "name": "setApprovalForAll",
      "outputs": [],
      "stateMutability": "nonpayable",
      "type": "function"
    },
    {
      "inputs": [
        {
          "internalType": "bytes4",
          "name": "interfaceId",
          "type": "bytes4"
        }
      ],
      "name": "supportsInterface",
      "outputs": [
        {
          "internalType": "bool",
          "name": "",
          "type": "bool"
        }
      ],
      "stateMutability": "view",
      "type": "function"
    },
    {
      "inputs": [],
      "name": "symbol",
      "outputs": [
        {
          "internalType": "string",
          "name": "",
          "type": "string"
        }
      ],
      "stateMutability": "view",
      "type": "function"
    },
    {
      "inputs": [
        {
          "internalType": "uint256",
          "name": "tokenId",
          "type": "uint256"
        }
      ],
      "name": "tokenURI",
      "outputs": [
        {
          "internalType": "string",
          "name": "",
          "type": "string"
        }
      ],
      "stateMutability": "view",
      "type": "function"
    },
    {
      "inputs": [
        {
          "internalType": "address",
          "name": "from",
          "type": "address"
        },
        {
          "internalType": "address",
          "name": "to",
          "type": "address"
        },
        {
          "internalType": "uint256",
          "name": "tokenId",
          "type": "uint256"
        }
      ],
      "name": "transferFrom",
      "outputs": [],
      "stateMutability": "nonpayable",
      "type": "function"
    }
  ],
  "bytecode": "0x60806040526014600860006101000a81548160ff021916908360ff16021790555060405180610100016040528060d38152602001620047f260d39139600990805190602001906200005292919062000848565b50604051806080016040528060568152602001620048c560569139600a90805190602001906200008492919062000848565b506040518060c001604052806040518060400160405280600481526020017f487567650000000000000000000000000000000000000000000000000000000081525081526020016040518060400160405280600581526020017f536361727900000000000000000000000000000000000000000000000000000081525081526020016040518060400160405280600581526020017f46756e6e7900000000000000000000000000000000000000000000000000000081525081526020016040518060400160405280600881526020017f41646f7261626c6500000000000000000000000000000000000000000000000081525081526020016040518060400160405280600581526020017f427261766500000000000000000000000000000000000000000000000000000081525081526020016040518060400160405280600481526020017f4c617a7900000000000000000000000000000000000000000000000000000000815250815250600b90600662000202929190620008d9565b506040518060c001604052806040518060400160405280600581526020017f426c61636b00000000000000000000000000000000000000000000000000000081525081526020016040518060400160405280600381526020017f526564000000000000000000000000000000000000000000000000000000000081525081526020016040518060400160405280600581526020017f477265656e00000000000000000000000000000000000000000000000000000081525081526020016040518060400160405280600681526020017f59656c6c6f77000000000000000000000000000000000000000000000000000081525081526020016040518060400160405280600581526020017f576869746500000000000000000000000000000000000000000000000000000081525081526020016040518060400160405280600481526020017f426c756500000000000000000000000000000000000000000000000000000000815250815250600c90600662000380929190620008d9565b506040518060c001604052806040518060400160405280600481526020017f4c696f6e0000000000000000000000000000000000000000000000000000000081525081526020016040518060400160405280600381526020017f446f67000000000000000000000000000000000000000000000000000000000081525081526020016040518060400160405280600381526020017f436174000000000000000000000000000000000000000000000000000000000081525081526020016040518060400160405280600581526020017f4561676c6500000000000000000000000000000000000000000000000000000081525081526020016040518060400160405280600781526020017f50656e6775696e0000000000000000000000000000000000000000000000000081525081526020016040518060400160405280600581526020017f5768616c65000000000000000000000000000000000000000000000000000000815250815250600d906006620004fe929190620008d9565b506040518060c001604052806040518060400160405280600381526020017f726564000000000000000000000000000000000000000000000000000000000081525081526020016040518060400160405280600781526020017f233038433241380000000000000000000000000000000000000000000000000081525081526020016040518060400160405280600581526020017f626c61636b00000000000000000000000000000000000000000000000000000081525081526020016040518060400160405280600681526020017f79656c6c6f77000000000000000000000000000000000000000000000000000081525081526020016040518060400160405280600481526020017f626c75650000000000000000000000000000000000000000000000000000000081525081526020016040518060400160405280600581526020017f677265656e000000000000000000000000000000000000000000000000000000815250815250600e9060066200067c929190620008d9565b503480156200068a57600080fd5b506040518060400160405280600a81526020017f30784c756363614e4654000000000000000000000000000000000000000000008152506040518060400160405280600581526020017f4c5543434100000000000000000000000000000000000000000000000000000081525081600090805190602001906200070f92919062000848565b5080600190805190602001906200072892919062000848565b505050620007766040518060400160405280601e81526020017f54686973206973206d79204e465420636f6e74726163742e20576f61682100008152506200077c60201b620013a11760201c565b62000afa565b6200081c8160405160240162000793919062000a0e565b6040516020818303038152906040527f41304fac000000000000000000000000000000000000000000000000000000007bffffffffffffffffffffffffffffffffffffffffffffffffffffffff19166020820180517bffffffffffffffffffffffffffffffffffffffffffffffffffffffff83818316178352505050506200081f60201b60201c565b50565b60008151905060006a636f6e736f6c652e6c6f679050602083016000808483855afa5050505050565b828054620008569062000a84565b90600052602060002090601f0160209004810192826200087a5760008555620008c6565b82601f106200089557805160ff1916838001178555620008c6565b82800160010185558215620008c6579182015b82811115620008c5578251825591602001919060010190620008a8565b5b509050620008d5919062000940565b5090565b8280548282559060005260206000209081019282156200092d579160200282015b828111156200092c5782518290805190602001906200091b92919062000848565b5091602001919060010190620008fa565b5b5090506200093c91906200095f565b5090565b5b808211156200095b57600081600090555060010162000941565b5090565b5b8082111562000983576000818162000979919062000987565b5060010162000960565b5090565b508054620009959062000a84565b6000825580601f10620009a95750620009ca565b601f016020900490600052602060002090810190620009c9919062000940565b5b50565b6000620009da8262000a32565b620009e6818562000a3d565b9350620009f881856020860162000a4e565b62000a038162000ae9565b840191505092915050565b6000602082019050818103600083015262000a2a8184620009cd565b905092915050565b600081519050919050565b600082825260208201905092915050565b60005b8381101562000a6e57808201518184015260208101905062000a51565b8381111562000a7e576000848401525b50505050565b6000600282049050600182168062000a9d57607f821691505b6020821081141562000ab45762000ab362000aba565b5b50919050565b7f4e487b7100000000000000000000000000000000000000000000000000000000600052602260045260246000fd5b6000601f19601f8301169050919050565b613ce88062000b0a6000396000f3fe608060405234801561001057600080fd5b506004361061012c5760003560e01c806370a08231116100ad578063c575757a11610071578063c575757a14610367578063c87b56dd14610397578063de9d132f146103c7578063e3d43b1f146103d1578063e985e9c5146103ef5761012c565b806370a08231146102b157806395d89b41146102e1578063a22cb465146102ff578063b187301f1461031b578063b88d4fde1461034b5761012c565b806323b872dd116100f457806323b872dd146101e95780632de38d681461020557806342842e0e14610235578063514dc8c6146102515780636352211e146102815761012c565b806301ffc9a714610131578063060475901461016157806306fdde031461017f578063081812fc1461019d578063095ea7b3146101cd575b600080fd5b61014b600480360381019061014691906127a1565b61041f565b6040516101589190613516565b60405180910390f35b610169610501565b60405161017691906137b1565b60405180910390f35b610187610517565b6040516101949190613531565b60405180910390f35b6101b760048036038101906101b291906127f3565b6105a9565b6040516101c49190613486565b60405180910390f35b6101e760048036038101906101e29190612765565b61062e565b005b61020360048036038101906101fe919061265f565b610746565b005b61021f600480360381019061021a91906127f3565b6107a6565b60405161022c9190613531565b60405180910390f35b61024f600480360381019061024a919061265f565b6108c4565b005b61026b600480360381019061026691906127f3565b6108e4565b6040516102789190613531565b60405180910390f35b61029b600480360381019061029691906127f3565b610a02565b6040516102a89190613486565b60405180910390f35b6102cb60048036038101906102c691906125fa565b610ab4565b6040516102d891906137b1565b60405180910390f35b6102e9610b6c565b6040516102f69190613531565b60405180910390f35b61031960048036038101906103149190612729565b610bfe565b005b610335600480360381019061033091906127f3565b610c14565b6040516103429190613531565b60405180910390f35b610365600480360381019061036091906126ae565b610d32565b005b610381600480360381019061037c91906127f3565b610d94565b60405161038e9190613531565b60405180910390f35b6103b160048036038101906103ac91906127f3565b610eb2565b6040516103be9190613531565b60405180910390f35b6103cf611004565b005b6103d96112f6565b6040516103e691906137cc565b60405180910390f35b61040960048036038101906104049190612623565b61130d565b6040516104169190613516565b60405180910390f35b60007f80ac58cd000000000000000000000000000000000000000000000000000000007bffffffffffffffffffffffffffffffffffffffffffffffffffffffff1916827bffffffffffffffffffffffffffffffffffffffffffffffffffffffff191614806104ea57507f5b5e139f000000000000000000000000000000000000000000000000000000007bffffffffffffffffffffffffffffffffffffffffffffffffffffffff1916827bffffffffffffffffffffffffffffffffffffffffffffffffffffffff1916145b806104fa57506104f98261143a565b5b9050919050565b60008061050e60076114a4565b90508091505090565b60606000805461052690613a78565b80601f016020809104026020016040519081016040528092919081815260200182805461055290613a78565b801561059f5780601f106105745761010080835404028352916020019161059f565b820191906000526020600020905b81548152906001019060200180831161058257829003601f168201915b5050505050905090565b60006105b4826114b2565b6105f3576040517f08c379a00000000000000000000000000000000000000000000000000000000081526004016105ea90613711565b60405180910390fd5b6004600083815260200190815260200160002060009054906101000a900473ffffffffffffffffffffffffffffffffffffffff169050919050565b600061063982610a02565b90508073ffffffffffffffffffffffffffffffffffffffff168373ffffffffffffffffffffffffffffffffffffffff1614156106aa576040517f08c379a00000000000000000000000000000000000000000000000000000000081526004016106a190613771565b60405180910390fd5b8073ffffffffffffffffffffffffffffffffffffffff166106c961151e565b73ffffffffffffffffffffffffffffffffffffffff1614806106f857506106f7816106f261151e565b61130d565b5b610737576040517f08c379a000000000000000000000000000000000000000000000000000000000815260040161072e90613631565b60405180910390fd5b6107418383611526565b505050565b61075761075161151e565b826115df565b610796576040517f08c379a000000000000000000000000000000000000000000000000000000000815260040161078d90613791565b60405180910390fd5b6107a18383836116bd565b505050565b606060006107da6107b684611919565b6040516020016107c69190613420565b604051602081830303815290604052611ac6565b9050600b80549050816107ed9190613af3565b9050600b8181548110610829577f4e487b7100000000000000000000000000000000000000000000000000000000600052603260045260246000fd5b90600052602060002001805461083e90613a78565b80601f016020809104026020016040519081016040528092919081815260200182805461086a90613a78565b80156108b75780601f1061088c576101008083540402835291602001916108b7565b820191906000526020600020905b81548152906001019060200180831161089a57829003601f168201915b5050505050915050919050565b6108df83838360405180602001604052806000815250610d32565b505050565b606060006109186108f484611919565b6040516020016109049190613464565b604051602081830303815290604052611ac6565b9050600e805490508161092b9190613af3565b9050600e8181548110610967577f4e487b7100000000000000000000000000000000000000000000000000000000600052603260045260246000fd5b90600052602060002001805461097c90613a78565b80601f01602080910402602001604051908101604052809291908181526020018280546109a890613a78565b80156109f55780601f106109ca576101008083540402835291602001916109f5565b820191906000526020600020905b8154815290600101906020018083116109d857829003601f168201915b5050505050915050919050565b6000806002600084815260200190815260200160002060009054906101000a900473ffffffffffffffffffffffffffffffffffffffff169050600073ffffffffffffffffffffffffffffffffffffffff168173ffffffffffffffffffffffffffffffffffffffff161415610aab576040517f08c379a0000000000000000000000000000000000000000000000000000000008152600401610aa290613671565b60405180910390fd5b80915050919050565b60008073ffffffffffffffffffffffffffffffffffffffff168273ffffffffffffffffffffffffffffffffffffffff161415610b25576040517f08c379a0000000000000000000000000000000000000000000000000000000008152600401610b1c90613651565b60405180910390fd5b600360008373ffffffffffffffffffffffffffffffffffffffff1673ffffffffffffffffffffffffffffffffffffffff168152602001908152602001600020549050919050565b606060018054610b7b90613a78565b80601f0160208091040260200160405190810160405280929190818152602001828054610ba790613a78565b8015610bf45780601f10610bc957610100808354040283529160200191610bf4565b820191906000526020600020905b815481529060010190602001808311610bd757829003601f168201915b5050505050905090565b610c10610c0961151e565b8383611af9565b5050565b60606000610c48610c2484611919565b604051602001610c3491906133b9565b604051602081830303815290604052611ac6565b9050600c8054905081610c5b9190613af3565b9050600c8181548110610c97577f4e487b7100000000000000000000000000000000000000000000000000000000600052603260045260246000fd5b906000526020600020018054610cac90613a78565b80601f0160208091040260200160405190810160405280929190818152602001828054610cd890613a78565b8015610d255780601f10610cfa57610100808354040283529160200191610d25565b820191906000526020600020905b815481529060010190602001808311610d0857829003601f168201915b5050505050915050919050565b610d43610d3d61151e565b836115df565b610d82576040517f08c379a0000000000000000000000000000000000000000000000000000000008152600401610d7990613791565b60405180910390fd5b610d8e84848484611c66565b50505050565b60606000610dc8610da484611919565b604051602001610db49190613397565b604051602081830303815290604052611ac6565b9050600d8054905081610ddb9190613af3565b9050600d8181548110610e17577f4e487b7100000000000000000000000000000000000000000000000000000000600052603260045260246000fd5b906000526020600020018054610e2c90613a78565b80601f0160208091040260200160405190810160405280929190818152602001828054610e5890613a78565b8015610ea55780601f10610e7a57610100808354040283529160200191610ea5565b820191906000526020600020905b815481529060010190602001808311610e8857829003601f168201915b5050505050915050919050565b6060610ebd826114b2565b610efc576040517f08c379a0000000000000000000000000000000000000000000000000000000008152600401610ef3906136f1565b60405180910390fd5b6000600660008481526020019081526020016000208054610f1c90613a78565b80601f0160208091040260200160405190810160405280929190818152602001828054610f4890613a78565b8015610f955780601f10610f6a57610100808354040283529160200191610f95565b820191906000526020600020905b815481529060010190602001808311610f7857829003601f168201915b505050505090506000610fa6611cc2565b9050600081511415610fbc578192505050610fff565b600082511115610ff1578082604051602001610fd99291906132d7565b60405160208183030381529060405292505050610fff565b610ffa84611cd9565b925050505b919050565b600061101060076114a4565b9050600860009054906101000a900460ff1660ff168110611066576040517f08c379a000000000000000000000000000000000000000000000000000000000815260040161105d906136d1565b60405180910390fd5b6000611071826107a6565b9050600061107e83610c14565b9050600061108b84610d94565b905060008383836040516020016110a4939291906132fb565b604051602081830303815290604052905060006110c0866108e4565b90506000600982600a856040516020016110dd949392919061332c565b60405160208183030381529060405290506000611122846110fd84611d80565b60405160200161110e9291906133db565b604051602081830303815290604052611d80565b90506000816040516020016111379190613442565b60405160208183030381529060405290506111866040518060400160405280601581526020017f0a2d2d2d2d2d2d2d2d2d2d2d2d2d2d2d2d2d2d2d2d00000000000000000000008152506113a1565b61118f816113a1565b6111cd6040518060400160405280601581526020017f2d2d2d2d2d2d2d2d2d2d2d2d2d2d2d2d2d2d2d2d0a00000000000000000000008152506113a1565b61120b6040518060400160405280601581526020017f0a2d2d2d2d2d2d2d2d2d2d2d2d2d2d2d2d2d2d2d2d00000000000000000000008152506113a1565b6112338160405160200161121f9190613375565b6040516020818303038152906040526113a1565b6112716040518060400160405280601581526020017f2d2d2d2d2d2d2d2d2d2d2d2d2d2d2d2d2d2d2d2d0a00000000000000000000008152506113a1565b61127b338a611f3e565b6112858982611f5c565b61128f6007611fd0565b6112b2604051806060016040528060258152602001613c4e602591398a33611fe6565b7febb98688741ffa4c7589bf325de30cf7becb63de567842e1ccdb6cb949fdc82c338a6040516112e39291906134ed565b60405180910390a1505050505050505050565b6000600860009054906101000a900460ff16905090565b6000600560008473ffffffffffffffffffffffffffffffffffffffff1673ffffffffffffffffffffffffffffffffffffffff16815260200190815260200160002060008373ffffffffffffffffffffffffffffffffffffffff1673ffffffffffffffffffffffffffffffffffffffff16815260200190815260200160002060009054906101000a900460ff16905092915050565b611437816040516024016113b59190613531565b6040516020818303038152906040527f41304fac000000000000000000000000000000000000000000000000000000007bffffffffffffffffffffffffffffffffffffffffffffffffffffffff19166020820180517bffffffffffffffffffffffffffffffffffffffffffffffffffffffff8381831617835250505050612085565b50565b60007f01ffc9a7000000000000000000000000000000000000000000000000000000007bffffffffffffffffffffffffffffffffffffffffffffffffffffffff1916827bffffffffffffffffffffffffffffffffffffffffffffffffffffffff1916149050919050565b600081600001549050919050565b60008073ffffffffffffffffffffffffffffffffffffffff166002600084815260200190815260200160002060009054906101000a900473ffffffffffffffffffffffffffffffffffffffff1673ffffffffffffffffffffffffffffffffffffffff1614159050919050565b600033905090565b816004600083815260200190815260200160002060006101000a81548173ffffffffffffffffffffffffffffffffffffffff021916908373ffffffffffffffffffffffffffffffffffffffff160217905550808273ffffffffffffffffffffffffffffffffffffffff1661159983610a02565b73ffffffffffffffffffffffffffffffffffffffff167f8c5be1e5ebec7d5bd14f71427d1e84f3dd0314c0f7b2291e5b200ac8c7c3b92560405160405180910390a45050565b60006115ea826114b2565b611629576040517f08c379a000000000000000000000000000000000000000000000000000000000815260040161162090613611565b60405180910390fd5b600061163483610a02565b90508073ffffffffffffffffffffffffffffffffffffffff168473ffffffffffffffffffffffffffffffffffffffff1614806116a357508373ffffffffffffffffffffffffffffffffffffffff1661168b846105a9565b73ffffffffffffffffffffffffffffffffffffffff16145b806116b457506116b3818561130d565b5b91505092915050565b8273ffffffffffffffffffffffffffffffffffffffff166116dd82610a02565b73ffffffffffffffffffffffffffffffffffffffff1614611733576040517f08c379a000000000000000000000000000000000000000000000000000000000815260040161172a90613731565b60405180910390fd5b600073ffffffffffffffffffffffffffffffffffffffff168273ffffffffffffffffffffffffffffffffffffffff1614156117a3576040517f08c379a000000000000000000000000000000000000000000000000000000000815260040161179a906135d1565b60405180910390fd5b6117ae8383836120ae565b6117b9600082611526565b6001600360008573ffffffffffffffffffffffffffffffffffffffff1673ffffffffffffffffffffffffffffffffffffffff16815260200190815260200160002060008282546118099190613981565b925050819055506001600360008473ffffffffffffffffffffffffffffffffffffffff1673ffffffffffffffffffffffffffffffffffffffff168152602001908152602001600020600082825461186091906138a0565b92505081905550816002600083815260200190815260200160002060006101000a81548173ffffffffffffffffffffffffffffffffffffffff021916908373ffffffffffffffffffffffffffffffffffffffff160217905550808273ffffffffffffffffffffffffffffffffffffffff168473ffffffffffffffffffffffffffffffffffffffff167fddf252ad1be2c89b69c2b068fc378daa952ba7f163c4a11628f55a4df523b3ef60405160405180910390a4505050565b60606000821415611961576040518060400160405280600181526020017f30000000000000000000000000000000000000000000000000000000000000008152509050611ac1565b600082905060005b6000821461199357808061197c90613aaa565b915050600a8261198c91906138f6565b9150611969565b60008167ffffffffffffffff8111156119d5577f4e487b7100000000000000000000000000000000000000000000000000000000600052604160045260246000fd5b6040519080825280601f01601f191660200182016040528015611a075781602001600182028036833780820191505090505b5090505b60008514611aba57600182611a209190613981565b9150600a85611a2f9190613af3565b6030611a3b91906138a0565b60f81b818381518110611a77577f4e487b7100000000000000000000000000000000000000000000000000000000600052603260045260246000fd5b60200101907effffffffffffffffffffffffffffffffffffffffffffffffffffffffffffff1916908160001a905350600a85611ab391906138f6565b9450611a0b565b8093505050505b919050565b600081604051602001611ad991906132c0565b6040516020818303038152906040528051906020012060001c9050919050565b8173ffffffffffffffffffffffffffffffffffffffff168373ffffffffffffffffffffffffffffffffffffffff161415611b68576040517f08c379a0000000000000000000000000000000000000000000000000000000008152600401611b5f906135f1565b60405180910390fd5b80600560008573ffffffffffffffffffffffffffffffffffffffff1673ffffffffffffffffffffffffffffffffffffffff16815260200190815260200160002060008473ffffffffffffffffffffffffffffffffffffffff1673ffffffffffffffffffffffffffffffffffffffff16815260200190815260200160002060006101000a81548160ff0219169083151502179055508173ffffffffffffffffffffffffffffffffffffffff168373ffffffffffffffffffffffffffffffffffffffff167f17307eab39ab6107e8899845ad3d59bd9653f200f220920489ca2b5937696c3183604051611c599190613516565b60405180910390a3505050565b611c718484846116bd565b611c7d848484846120b3565b611cbc576040517f08c379a0000000000000000000000000000000000000000000000000000000008152600401611cb390613591565b60405180910390fd5b50505050565b606060405180602001604052806000815250905090565b6060611ce4826114b2565b611d23576040517f08c379a0000000000000000000000000000000000000000000000000000000008152600401611d1a90613751565b60405180910390fd5b6000611d2d611cc2565b90506000815111611d4d5760405180602001604052806000815250611d78565b80611d5784611919565b604051602001611d689291906132d7565b6040516020818303038152906040525b915050919050565b60606000825190506000811415611da95760405180602001604052806000815250915050611f39565b60006003600283611dba91906138a0565b611dc491906138f6565b6004611dd09190613927565b90506000602082611de191906138a0565b67ffffffffffffffff811115611e20577f4e487b7100000000000000000000000000000000000000000000000000000000600052604160045260246000fd5b6040519080825280601f01601f191660200182016040528015611e525781602001600182028036833780820191505090505b5090506000604051806060016040528060408152602001613c73604091399050600181016020830160005b86811015611ef65760038101905062ffffff818a015116603f8160121c168401518060081b905060ff603f83600c1c1686015116810190508060081b905060ff603f8360061c1686015116810190508060081b905060ff603f831686015116810190508060e01b90508084526004840193505050611e7d565b506003860660018114611f105760028114611f2057611f2b565b613d3d60f01b6002830352611f2b565b603d60f81b60018303525b508484525050819450505050505b919050565b611f5882826040518060200160405280600081525061224a565b5050565b611f65826114b2565b611fa4576040517f08c379a0000000000000000000000000000000000000000000000000000000008152600401611f9b90613691565b60405180910390fd5b80600660008481526020019081526020016000209080519060200190611fcb929190612486565b505050565b6001816000016000828254019250508190555050565b612080838383604051602401611ffe93929190613553565b6040516020818303038152906040527fe3849f79000000000000000000000000000000000000000000000000000000007bffffffffffffffffffffffffffffffffffffffffffffffffffffffff19166020820180517bffffffffffffffffffffffffffffffffffffffffffffffffffffffff8381831617835250505050612085565b505050565b60008151905060006a636f6e736f6c652e6c6f679050602083016000808483855afa5050505050565b505050565b60006120d48473ffffffffffffffffffffffffffffffffffffffff166122a5565b1561223d578373ffffffffffffffffffffffffffffffffffffffff1663150b7a026120fd61151e565b8786866040518563ffffffff1660e01b815260040161211f94939291906134a1565b602060405180830381600087803b15801561213957600080fd5b505af192505050801561216a57506040513d601f19601f8201168201806040525081019061216791906127ca565b60015b6121ed573d806000811461219a576040519150601f19603f3d011682016040523d82523d6000602084013e61219f565b606091505b506000815114156121e5576040517f08c379a00000000000000000000000000000000000000000000000000000000081526004016121dc90613591565b60405180910390fd5b805181602001fd5b63150b7a0260e01b7bffffffffffffffffffffffffffffffffffffffffffffffffffffffff1916817bffffffffffffffffffffffffffffffffffffffffffffffffffffffff191614915050612242565b600190505b949350505050565b61225483836122b8565b61226160008484846120b3565b6122a0576040517f08c379a000000000000000000000000000000000000000000000000000000000815260040161229790613591565b60405180910390fd5b505050565b600080823b905060008111915050919050565b600073ffffffffffffffffffffffffffffffffffffffff168273ffffffffffffffffffffffffffffffffffffffff161415612328576040517f08c379a000000000000000000000000000000000000000000000000000000000815260040161231f906136b1565b60405180910390fd5b612331816114b2565b15612371576040517f08c379a0000000000000000000000000000000000000000000000000000000008152600401612368906135b1565b60405180910390fd5b61237d600083836120ae565b6001600360008473ffffffffffffffffffffffffffffffffffffffff1673ffffffffffffffffffffffffffffffffffffffff16815260200190815260200160002060008282546123cd91906138a0565b92505081905550816002600083815260200190815260200160002060006101000a81548173ffffffffffffffffffffffffffffffffffffffff021916908373ffffffffffffffffffffffffffffffffffffffff160217905550808273ffffffffffffffffffffffffffffffffffffffff16600073ffffffffffffffffffffffffffffffffffffffff167fddf252ad1be2c89b69c2b068fc378daa952ba7f163c4a11628f55a4df523b3ef60405160405180910390a45050565b82805461249290613a78565b90600052602060002090601f0160209004810192826124b457600085556124fb565b82601f106124cd57805160ff19168380011785556124fb565b828001600101855582156124fb579182015b828111156124fa5782518255916020019190600101906124df565b5b509050612508919061250c565b5090565b5b8082111561252557600081600090555060010161250d565b5090565b600061253c61253784613818565b6137e7565b90508281526020810184848401111561255457600080fd5b61255f848285613a36565b509392505050565b60008135905061257681613bf1565b92915050565b60008135905061258b81613c08565b92915050565b6000813590506125a081613c1f565b92915050565b6000815190506125b581613c1f565b92915050565b600082601f8301126125cc57600080fd5b81356125dc848260208601612529565b91505092915050565b6000813590506125f481613c36565b92915050565b60006020828403121561260c57600080fd5b600061261a84828501612567565b91505092915050565b6000806040838503121561263657600080fd5b600061264485828601612567565b925050602061265585828601612567565b9150509250929050565b60008060006060848603121561267457600080fd5b600061268286828701612567565b935050602061269386828701612567565b92505060406126a4868287016125e5565b9150509250925092565b600080600080608085870312156126c457600080fd5b60006126d287828801612567565b94505060206126e387828801612567565b93505060406126f4878288016125e5565b925050606085013567ffffffffffffffff81111561271157600080fd5b61271d878288016125bb565b91505092959194509250565b6000806040838503121561273c57600080fd5b600061274a85828601612567565b925050602061275b8582860161257c565b9150509250929050565b6000806040838503121561277857600080fd5b600061278685828601612567565b9250506020612797858286016125e5565b9150509250929050565b6000602082840312156127b357600080fd5b60006127c184828501612591565b91505092915050565b6000602082840312156127dc57600080fd5b60006127ea848285016125a6565b91505092915050565b60006020828403121561280557600080fd5b6000612813848285016125e5565b91505092915050565b612825816139b5565b82525050565b612834816139c7565b82525050565b60006128458261385d565b61284f8185613873565b935061285f818560208601613a45565b61286881613be0565b840191505092915050565b600061287e82613868565b6128888185613884565b9350612898818560208601613a45565b6128a181613be0565b840191505092915050565b60006128b782613868565b6128c18185613895565b93506128d1818560208601613a45565b80840191505092915050565b600081546128ea81613a78565b6128f48186613895565b9450600182166000811461290f576001811461292057612953565b60ff19831686528186019350612953565b61292985613848565b60005b8381101561294b5781548189015260018201915060208101905061292c565b838801955050505b50505092915050565b6000612969602583613895565b91507f68747470733a2f2f6e6674707265766965772e30786465762e636f6465732f3f60008301527f636f64653d0000000000000000000000000000000000000000000000000000006020830152602582019050919050565b60006129cf603283613884565b91507f4552433732313a207472616e7366657220746f206e6f6e20455243373231526560008301527f63656976657220696d706c656d656e74657200000000000000000000000000006020830152604082019050919050565b6000612a35601c83613884565b91507f4552433732313a20746f6b656e20616c7265616479206d696e746564000000006000830152602082019050919050565b6000612a75600a83613895565b91507f54484952445f574f5244000000000000000000000000000000000000000000006000830152600a82019050919050565b6000612ab5602483613884565b91507f4552433732313a207472616e7366657220746f20746865207a65726f2061646460008301527f72657373000000000000000000000000000000000000000000000000000000006020830152604082019050919050565b6000612b1b601983613884565b91507f4552433732313a20617070726f766520746f2063616c6c6572000000000000006000830152602082019050919050565b6000612b5b606383613895565b91507f222c20226465736372697074696f6e223a20224120686967686c79206163636c60008301527f61696d656420636f6c6c656374696f6e206f6620737175617265732e222c202260208301527f696d616765223a2022646174613a696d6167652f7376672b786d6c3b6261736560408301527f36342c00000000000000000000000000000000000000000000000000000000006060830152606382019050919050565b6000612c0d600b83613895565b91507f5345434f4e445f574f52440000000000000000000000000000000000000000006000830152600b82019050919050565b6000612c4d602c83613884565b91507f4552433732313a206f70657261746f7220717565727920666f72206e6f6e657860008301527f697374656e7420746f6b656e00000000000000000000000000000000000000006020830152604082019050919050565b6000612cb3600d83613895565b91507f3c2f746578743e3c2f7376673e000000000000000000000000000000000000006000830152600d82019050919050565b6000612cf3603883613884565b91507f4552433732313a20617070726f76652063616c6c6572206973206e6f74206f7760008301527f6e6572206e6f7220617070726f76656420666f7220616c6c00000000000000006020830152604082019050919050565b6000612d59602a83613884565b91507f4552433732313a2062616c616e636520717565727920666f7220746865207a6560008301527f726f2061646472657373000000000000000000000000000000000000000000006020830152604082019050919050565b6000612dbf602983613884565b91507f4552433732313a206f776e657220717565727920666f72206e6f6e657869737460008301527f656e7420746f6b656e00000000000000000000000000000000000000000000006020830152604082019050919050565b6000612e25602e83613884565b91507f45524337323155524953746f726167653a2055524920736574206f66206e6f6e60008301527f6578697374656e7420746f6b656e0000000000000000000000000000000000006020830152604082019050919050565b6000612e8b600283613895565b91507f227d0000000000000000000000000000000000000000000000000000000000006000830152600282019050919050565b6000612ecb602083613884565b91507f4552433732313a206d696e7420746f20746865207a65726f20616464726573736000830152602082019050919050565b6000612f0b601983613884565b91507f416c6c204e4654732068617665206265656e206d696e746564000000000000006000830152602082019050919050565b6000612f4b603183613884565b91507f45524337323155524953746f726167653a2055524920717565727920666f722060008301527f6e6f6e6578697374656e7420746f6b656e0000000000000000000000000000006020830152604082019050919050565b6000612fb1602c83613884565b91507f4552433732313a20617070726f76656420717565727920666f72206e6f6e657860008301527f697374656e7420746f6b656e00000000000000000000000000000000000000006020830152604082019050919050565b6000613017602983613884565b91507f4552433732313a207472616e73666572206f6620746f6b656e2074686174206960008301527f73206e6f74206f776e00000000000000000000000000000000000000000000006020830152604082019050919050565b600061307d602f83613884565b91507f4552433732314d657461646174613a2055524920717565727920666f72206e6f60008301527f6e6578697374656e7420746f6b656e00000000000000000000000000000000006020830152604082019050919050565b60006130e3600a83613895565b91507f7b226e616d65223a2022000000000000000000000000000000000000000000006000830152600a82019050919050565b6000613123602183613884565b91507f4552433732313a20617070726f76616c20746f2063757272656e74206f776e6560008301527f72000000000000000000000000000000000000000000000000000000000000006020830152604082019050919050565b6000613189600a83613895565b91507f46495253545f574f5244000000000000000000000000000000000000000000006000830152600a82019050919050565b60006131c9601d83613895565b91507f646174613a6170706c69636174696f6e2f6a736f6e3b6261736536342c0000006000830152601d82019050919050565b6000613209603183613884565b91507f4552433732313a207472616e736665722063616c6c6572206973206e6f74206f60008301527f776e6572206e6f7220617070726f7665640000000000000000000000000000006020830152604082019050919050565b600061326f600583613895565b91507f434f4c4f520000000000000000000000000000000000000000000000000000006000830152600582019050919050565b6132ab81613a1f565b82525050565b6132ba81613a29565b82525050565b60006132cc82846128ac565b915081905092915050565b60006132e382856128ac565b91506132ef82846128ac565b91508190509392505050565b600061330782866128ac565b915061331382856128ac565b915061331f82846128ac565b9150819050949350505050565b600061333882876128dd565b915061334482866128ac565b915061335082856128dd565b915061335c82846128ac565b915061336782612ca6565b915081905095945050505050565b60006133808261295c565b915061338c82846128ac565b915081905092915050565b60006133a282612a68565b91506133ae82846128ac565b915081905092915050565b60006133c482612c00565b91506133d082846128ac565b915081905092915050565b60006133e6826130d6565b91506133f282856128ac565b91506133fd82612b4e565b915061340982846128ac565b915061341482612e7e565b91508190509392505050565b600061342b8261317c565b915061343782846128ac565b915081905092915050565b600061344d826131bc565b915061345982846128ac565b915081905092915050565b600061346f82613262565b915061347b82846128ac565b915081905092915050565b600060208201905061349b600083018461281c565b92915050565b60006080820190506134b6600083018761281c565b6134c3602083018661281c565b6134d060408301856132a2565b81810360608301526134e2818461283a565b905095945050505050565b6000604082019050613502600083018561281c565b61350f60208301846132a2565b9392505050565b600060208201905061352b600083018461282b565b92915050565b6000602082019050818103600083015261354b8184612873565b905092915050565b6000606082019050818103600083015261356d8186612873565b905061357c60208301856132a2565b613589604083018461281c565b949350505050565b600060208201905081810360008301526135aa816129c2565b9050919050565b600060208201905081810360008301526135ca81612a28565b9050919050565b600060208201905081810360008301526135ea81612aa8565b9050919050565b6000602082019050818103600083015261360a81612b0e565b9050919050565b6000602082019050818103600083015261362a81612c40565b9050919050565b6000602082019050818103600083015261364a81612ce6565b9050919050565b6000602082019050818103600083015261366a81612d4c565b9050919050565b6000602082019050818103600083015261368a81612db2565b9050919050565b600060208201905081810360008301526136aa81612e18565b9050919050565b600060208201905081810360008301526136ca81612ebe565b9050919050565b600060208201905081810360008301526136ea81612efe565b9050919050565b6000602082019050818103600083015261370a81612f3e565b9050919050565b6000602082019050818103600083015261372a81612fa4565b9050919050565b6000602082019050818103600083015261374a8161300a565b9050919050565b6000602082019050818103600083015261376a81613070565b9050919050565b6000602082019050818103600083015261378a81613116565b9050919050565b600060208201905081810360008301526137aa816131fc565b9050919050565b60006020820190506137c660008301846132a2565b92915050565b60006020820190506137e160008301846132b1565b92915050565b6000604051905081810181811067ffffffffffffffff8211171561380e5761380d613bb1565b5b8060405250919050565b600067ffffffffffffffff82111561383357613832613bb1565b5b601f19601f8301169050602081019050919050565b60008190508160005260206000209050919050565b600081519050919050565b600081519050919050565b600082825260208201905092915050565b600082825260208201905092915050565b600081905092915050565b60006138ab82613a1f565b91506138b683613a1f565b9250827fffffffffffffffffffffffffffffffffffffffffffffffffffffffffffffffff038211156138eb576138ea613b24565b5b828201905092915050565b600061390182613a1f565b915061390c83613a1f565b92508261391c5761391b613b53565b5b828204905092915050565b600061393282613a1f565b915061393d83613a1f565b9250817fffffffffffffffffffffffffffffffffffffffffffffffffffffffffffffffff048311821515161561397657613975613b24565b5b828202905092915050565b600061398c82613a1f565b915061399783613a1f565b9250828210156139aa576139a9613b24565b5b828203905092915050565b60006139c0826139ff565b9050919050565b60008115159050919050565b60007fffffffff0000000000000000000000000000000000000000000000000000000082169050919050565b600073ffffffffffffffffffffffffffffffffffffffff82169050919050565b6000819050919050565b600060ff82169050919050565b82818337600083830152505050565b60005b83811015613a63578082015181840152602081019050613a48565b83811115613a72576000848401525b50505050565b60006002820490506001821680613a9057607f821691505b60208210811415613aa457613aa3613b82565b5b50919050565b6000613ab582613a1f565b91507fffffffffffffffffffffffffffffffffffffffffffffffffffffffffffffffff821415613ae857613ae7613b24565b5b600182019050919050565b6000613afe82613a1f565b9150613b0983613a1f565b925082613b1957613b18613b53565b5b828206905092915050565b7f4e487b7100000000000000000000000000000000000000000000000000000000600052601160045260246000fd5b7f4e487b7100000000000000000000000000000000000000000000000000000000600052601260045260246000fd5b7f4e487b7100000000000000000000000000000000000000000000000000000000600052602260045260246000fd5b7f4e487b7100000000000000000000000000000000000000000000000000000000600052604160045260246000fd5b6000601f19601f8301169050919050565b613bfa816139b5565b8114613c0557600080fd5b50565b613c11816139c7565b8114613c1c57600080fd5b50565b613c28816139d3565b8114613c3357600080fd5b50565b613c3f81613a1f565b8114613c4a57600080fd5b5056fe416e204e465420772f20494420257320686173206265656e206d696e74656420746f2025734142434445464748494a4b4c4d4e4f505152535455565758595a6162636465666768696a6b6c6d6e6f707172737475767778797a303132333435363738392b2fa26469706673582212203d3d4b10ec7e29965dcf859caf5da78dfee6e39e1ea5db27b68491aba20f060264736f6c634300080000333c73766720786d6c6e733d27687474703a2f2f7777772e77332e6f72672f323030302f73766727207072657365727665417370656374526174696f3d27784d696e594d696e206d656574272076696577426f783d273020302033353020333530273e3c7374796c653e2e62617365207b2066696c6c3a2077686974653b20666f6e742d66616d696c793a2073657269663b20666f6e742d73697a653a20323470783b207d3c2f7374796c653e3c726563742077696474683d273130302527206865696768743d2731303025272066696c6c3d27272f3e3c7465787420783d273530252720793d273530252720636c6173733d27626173652720646f6d696e616e742d626173656c696e653d276d6964646c652720746578742d616e63686f723d276d6964646c65273e",
  "linkReferences": {},
  "deployedLinkReferences": {}
}